{
  "_format": "hh-sol-artifact-1",
  "contractName": "Rustitrage",
  "sourceName": "contracts/Rustitrage.sol",
  "abi": [
    {
      "inputs": [
        {
          "internalType": "address",
          "name": "_uniV2Router",
          "type": "address"
        },
        {
          "internalType": "address",
          "name": "_uniV3Router",
          "type": "address"
        },
        {
          "internalType": "address",
          "name": "_sushiRouter",
          "type": "address"
        },
        {
          "internalType": "address",
          "name": "_pancakeRouter",
          "type": "address"
        }
      ],
      "stateMutability": "nonpayable",
      "type": "constructor"
    },
    {
      "inputs": [
        {
          "internalType": "address",
          "name": "target",
          "type": "address"
        }
      ],
      "name": "AddressEmptyCode",
      "type": "error"
    },
    {
      "inputs": [
        {
          "internalType": "address",
          "name": "account",
          "type": "address"
        }
      ],
      "name": "AddressInsufficientBalance",
      "type": "error"
    },
    {
      "inputs": [],
      "name": "FailedInnerCall",
      "type": "error"
    },
    {
      "inputs": [
        {
          "internalType": "address",
          "name": "owner",
          "type": "address"
        }
      ],
      "name": "OwnableInvalidOwner",
      "type": "error"
    },
    {
      "inputs": [
        {
          "internalType": "address",
          "name": "account",
          "type": "address"
        }
      ],
      "name": "OwnableUnauthorizedAccount",
      "type": "error"
    },
    {
      "inputs": [],
      "name": "ReentrancyGuardReentrantCall",
      "type": "error"
    },
    {
      "inputs": [
        {
          "internalType": "address",
          "name": "token",
          "type": "address"
        }
      ],
      "name": "SafeERC20FailedOperation",
      "type": "error"
    },
    {
      "anonymous": false,
      "inputs": [
        {
          "indexed": true,
          "internalType": "address",
          "name": "executor",
          "type": "address"
        },
        {
          "indexed": true,
          "internalType": "address",
          "name": "tokenIn",
          "type": "address"
        },
        {
          "indexed": true,
          "internalType": "address",
          "name": "tokenOut",
          "type": "address"
        },
        {
          "indexed": false,
          "internalType": "uint256",
          "name": "amountIn",
          "type": "uint256"
        },
        {
          "indexed": false,
          "internalType": "uint256",
          "name": "profit",
          "type": "uint256"
        },
        {
          "indexed": false,
          "internalType": "uint256",
          "name": "minerTip",
          "type": "uint256"
        }
      ],
      "name": "ArbitrageExecuted",
      "type": "event"
    },
    {
      "anonymous": false,
      "inputs": [
        {
          "indexed": true,
          "internalType": "address",
          "name": "previousOwner",
          "type": "address"
        },
        {
          "indexed": true,
          "internalType": "address",
          "name": "newOwner",
          "type": "address"
        }
      ],
      "name": "OwnershipTransferred",
      "type": "event"
    },
    {
      "anonymous": false,
      "inputs": [
        {
          "indexed": true,
          "internalType": "address",
          "name": "token",
          "type": "address"
        },
        {
          "indexed": false,
          "internalType": "uint256",
          "name": "amount",
          "type": "uint256"
        },
        {
          "indexed": true,
          "internalType": "address",
          "name": "to",
          "type": "address"
        }
      ],
      "name": "ProfitWithdrawn",
      "type": "event"
    },
    {
      "inputs": [],
      "name": "MAX_SLIPPAGE",
      "outputs": [
        {
          "internalType": "uint256",
          "name": "",
          "type": "uint256"
        }
      ],
      "stateMutability": "view",
      "type": "function"
    },
    {
      "inputs": [],
      "name": "PANCAKESWAP_ROUTER",
      "outputs": [
        {
          "internalType": "address",
          "name": "",
          "type": "address"
        }
      ],
      "stateMutability": "view",
      "type": "function"
    },
    {
      "inputs": [],
      "name": "SLIPPAGE_BASE",
      "outputs": [
        {
          "internalType": "uint256",
          "name": "",
          "type": "uint256"
        }
      ],
      "stateMutability": "view",
      "type": "function"
    },
    {
      "inputs": [],
      "name": "SUSHISWAP_ROUTER",
      "outputs": [
        {
          "internalType": "address",
          "name": "",
          "type": "address"
        }
      ],
      "stateMutability": "view",
      "type": "function"
    },
    {
      "inputs": [],
      "name": "UNISWAP_V2_ROUTER",
      "outputs": [
        {
          "internalType": "address",
          "name": "",
          "type": "address"
        }
      ],
      "stateMutability": "view",
      "type": "function"
    },
    {
      "inputs": [],
      "name": "UNISWAP_V3_ROUTER",
      "outputs": [
        {
          "internalType": "address",
          "name": "",
          "type": "address"
        }
      ],
      "stateMutability": "view",
      "type": "function"
    },
    {
      "inputs": [
        {
          "internalType": "address",
          "name": "",
          "type": "address"
        }
      ],
      "name": "authorizedCallers",
      "outputs": [
        {
          "internalType": "bool",
          "name": "",
          "type": "bool"
        }
      ],
      "stateMutability": "view",
      "type": "function"
    },
    {
      "inputs": [
        {
          "internalType": "address",
          "name": "token",
          "type": "address"
        },
        {
          "internalType": "address",
          "name": "to",
          "type": "address"
        }
      ],
      "name": "emergencyWithdraw",
      "outputs": [],
      "stateMutability": "nonpayable",
      "type": "function"
    },
    {
      "inputs": [],
      "name": "owner",
      "outputs": [
        {
          "internalType": "address",
          "name": "",
          "type": "address"
        }
      ],
      "stateMutability": "view",
      "type": "function"
    },
    {
      "inputs": [
        {
          "internalType": "address",
          "name": "",
          "type": "address"
        }
      ],
      "name": "profits",
      "outputs": [
        {
          "internalType": "uint256",
          "name": "",
          "type": "uint256"
        }
      ],
      "stateMutability": "view",
      "type": "function"
    },
    {
      "inputs": [],
      "name": "renounceOwnership",
      "outputs": [],
      "stateMutability": "nonpayable",
      "type": "function"
    },
    {
      "inputs": [
        {
          "internalType": "address",
          "name": "caller",
          "type": "address"
        },
        {
          "internalType": "bool",
          "name": "authorized",
          "type": "bool"
        }
      ],
      "name": "setAuthorizedCaller",
      "outputs": [],
      "stateMutability": "nonpayable",
      "type": "function"
    },
    {
      "inputs": [
        {
          "components": [
            {
              "components": [
                {
                  "internalType": "address",
                  "name": "tokenIn",
                  "type": "address"
                },
                {
                  "internalType": "address",
                  "name": "tokenOut",
                  "type": "address"
                },
                {
                  "internalType": "uint256",
                  "name": "amountIn",
                  "type": "uint256"
                },
                {
                  "internalType": "uint256",
                  "name": "minAmountOut",
                  "type": "uint256"
                },
                {
                  "internalType": "address",
                  "name": "pool",
                  "type": "address"
                },
                {
                  "internalType": "enum Rustitrage.PoolType",
                  "name": "poolType",
                  "type": "uint8"
                },
                {
                  "internalType": "bytes",
                  "name": "extraData",
                  "type": "bytes"
                }
              ],
              "internalType": "struct Rustitrage.SwapParams[]",
              "name": "swaps",
              "type": "tuple[]"
            },
            {
              "internalType": "address",
              "name": "miner",
              "type": "address"
            },
            {
              "internalType": "uint256",
              "name": "minerTip",
              "type": "uint256"
            },
            {
              "internalType": "uint256",
              "name": "deadline",
              "type": "uint256"
            }
          ],
          "internalType": "struct Rustitrage.ArbitrageParams",
          "name": "params",
          "type": "tuple"
        }
      ],
      "name": "swap",
      "outputs": [],
      "stateMutability": "payable",
      "type": "function"
    },
    {
      "inputs": [
        {
          "internalType": "address",
          "name": "newOwner",
          "type": "address"
        }
      ],
      "name": "transferOwnership",
      "outputs": [],
      "stateMutability": "nonpayable",
      "type": "function"
    },
    {
      "inputs": [
        {
          "internalType": "address",
          "name": "token",
          "type": "address"
        },
        {
          "internalType": "uint256",
          "name": "amount",
          "type": "uint256"
        },
        {
          "internalType": "address",
          "name": "to",
          "type": "address"
        }
      ],
      "name": "withdrawProfits",
      "outputs": [],
      "stateMutability": "nonpayable",
      "type": "function"
    },
    {
      "stateMutability": "payable",
      "type": "receive"
    }
  ],
  "bytecode": "0x610100346200014c57601f6200187b38819003918201601f19168301916001600160401b0383118484101762000151578084926080946040528339810103126200014c576200004e8162000167565b6200005c6020830162000167565b91620000796060620000716040840162000167565b920162000167565b600091600183553315620001335760018054336001600160a01b03198216811790925560408051979096909290916001600160a01b03167f8be0079c531659141344cd1fd0a4f28419497f9722a3daafe3b4186f6b6457e08780a360805260a05260c05260e052338152600260205220805460ff191660011790556116fe90816200017d823960805181610eef015260a0518181816106150152818161075e0152611180015260c051816111c2015260e05181610e530152f35b604051631e4fbdf760e01b815260048101849052602490fd5b600080fd5b634e487b7160e01b600052604160045260246000fd5b51906001600160a01b03821682036200014c5756fe608080604052600436101561001d575b50361561001b57600080fd5b005b60003560e01c908163277754ed146111af5750806341c64a2f1461116a578063454bbd2914611114578063536fff6c146110d55780636382d9ad1461108d578063715018a614611030578063770d584a14610f475780638da5cb5b14610f1e578063a82ed9ec14610ed9578063aee45a6a14610ebc578063cc85f08014610e82578063e1a504e514610e3d578063f2fde38b14610db5578063f8d64c07146100f15763f9759518146100cf573861000f565b346100ec5760003660031901126100ec5760206040516101f48152f35b600080fd5b60203660031901126100ec576001600160401b03600435116100ec576080600435360360031901126100ec5733600052600260205260ff604060002054168015610da1575b15610d6d57600260005414610d5b576002600055600161015a600480350180611228565b90501115610d0a57606460043501354211610ccf5761018e610189610183600480350180611228565b9061125d565b61129a565b61019c600480350180611228565b6101aa600480350180611228565b6000198101915081116104eb576101ce6020916101d49360018060a01b0395611278565b0161129a565b166001600160a01b038216819003610c7f576101ef82611316565b906040610203610183600480350180611228565b0135926000935b610218600480350180611228565b9050851015610b385761023985610233600480350180611228565b90611278565b9060e0823603126100ec57604051918260e08101106001600160401b0360e0850111176105af5760e0830160405261027081611207565b835261027e60208201611207565b602084015260408101356040840152606081013560608401526102a360808201611207565b608084015260a081013560068110156100ec5760a084015260c08101356001600160401b0381116100ec5736601f8284010112156100ec576102e7818301356112cf565b916102f560405193846112ae565b8082018035808552369101602001116100ec5760009160209180820180359084018685013701358301015260c083015260408201518110610af75760a08201516006811015610ae1576001036105f657815160808301516103649183916001600160a01b039081169116611549565b6040518060608101106001600160401b036060830111176105af576060810160405260028152604036602083013760018060a01b038351168151156104d557602082015260018060a01b036020840151168151600110156104d557604082015260018060a01b036080840151169060608401519261012c420142116104eb5792906040519384926338ed173960e01b845260a48401916004850152602484015260a060448401528151809152602060c484019201906000905b8082106105d1575050509181600081819530606483015261012c4201608483015203925af19081156105c557600091610501575b508051806000198101116104eb578151600019820110156104d5576000190160051b0160200151906060905b015181106104905760019094019361020a565b60405162461bcd60e51b815260206004820152601a60248201527f496e73756666696369656e74206f757470757420616d6f756e740000000000006044820152606490fd5b634e487b7160e01b600052603260045260246000fd5b634e487b7160e01b600052601160045260246000fd5b3d9150816000823e61051382826112ae565b60208183810103126100ec578051916001600160401b0383116100ec57808201601f8484010112156100ec5782820151926001600160401b0384116105af578360051b906040519461056860208401876112ae565b8552602085019284016020838387010101116100ec57602081850101925b6020838387010101841061059f57505050505086610451565b8351815260209384019301610586565b634e487b7160e01b600052604160045260246000fd5b6040513d6000823e3d90fd5b82516001600160a01b031684528694506020938401939092019160019091019061041d565b60a08201516006811015610ae1576002036107cb5781516106439082907f0000000000000000000000000000000000000000000000000000000000000000906001600160a01b0316611549565b60018060a01b0382511660018060a01b036020840151169160c08401516020818051810103126100ec57602001519162ffffff831683036100ec5761012c420142116104eb5760608501519260405194856101008101106001600160401b03610100880111176105af5761010086016040908152928652602080870191825262ffffff92831684880190815230606089019081524261012c0160808a0190815260a08a0197885260c08a01988952600060e08b01818152975163414bf38960e01b81529a516001600160a01b0390811660048d01529551861660248c0152925190951660448a0152518316606489015292516084880152935160a4870152935160c48601529051831660e485015290918391610104918391907f0000000000000000000000000000000000000000000000000000000000000000165af180156105c557600090610798575b606091509161047d565b506020813d6020116107c3575b816107b2602093836112ae565b810103126100ec576060905161078e565b3d91506107a5565b60a08201516006811015610ae1576003036108de57815160808301516107fe92916001600160a01b039182169116611549565b61081560c0820151602080825183010191016114bf565b15610863576080810151604051632f58056d60e21b815230600482015290602090829060249082906000906001600160a01b03165af180156105c55760009061079857606091505b9161047d565b6080810151604051636ec9facd60e11b815230600482015290602090829060249082906000906001600160a01b03165af180156105c5576000906108ab575b6060915061085d565b506020813d6020116108d6575b816108c5602093836112ae565b810103126100ec57606090516108a2565b3d91506108b8565b60a08201516006811015610ae1576004036109f05760c082015180518101916040828403126100ec5760208201516001600160401b0381116100ec5761092c90602080860191850101611455565b906040830151926001600160401b0384116100ec57600061095c6109b19260208097816109c39a01920101611455565b8751608089015191959161097e9186916001600160a01b039081169116611549565b60018060a01b036080890151169360405197889687958694638bce495f60e01b865260a0600487015260a486019061149a565b8481036003190160248601529061149a565b90806044840152836064840152608483015203925af180156105c55760009061079857606091509161047d565b60a08201516006811015610ae157600503610aa45760c082015182516080840151600093849392610a2d926001600160a01b039081169116611549565b60808401518151916020019083906001600160a01b03165af1610a4e611402565b9015610a6e576020818051810103126100ec57602060609101519161047d565b60405162461bcd60e51b815260206004820152600e60248201526d0c1e081cddd85c0819985a5b195960921b6044820152606490fd5b60405162461bcd60e51b8152602060048201526015602482015274556e737570706f7274656420706f6f6c207479706560581b6044820152606490fd5b634e487b7160e01b600052602160045260246000fd5b60405162461bcd60e51b8152602060048201526019602482015278125b9cdd59999a58da595b9d081a5b9c1d5d08185b5bdd5b9d603a1b6044820152606490fd5b50610b4b83610b4683611316565b61121b565b906044600435013580831115610c305780151580610c11575b610bf4575b610b73818461121b565b6001600160a01b038316600090815260036020526040902080549182019182106104eb57556040610bab610183600480350180611228565b0135926040519384526020840152604083015260018060a01b0316907f663acb2d0c0b9e543e3b38ad7ed859f655106990f62185c2a0158839218a87e060603392a46001600055005b610c0c81610c0660246004350161129a565b84611388565b610b69565b506001600160a01b03610c2860043560240161129a565b161515610b64565b60405162461bcd60e51b815260206004820152602160248201527f496e73756666696369656e742070726f66697420666f72206d696e65722074696044820152600760fc1b6064820152608490fd5b60405162461bcd60e51b815260206004820152602260248201527f417262697472616765206d75737420656e6420776974682073616d6520746f6b60448201526132b760f11b6064820152608490fd5b60405162461bcd60e51b8152602060048201526013602482015272151c985b9cd858dd1a5bdb88195e1c1a5c9959606a1b6044820152606490fd5b60405162461bcd60e51b815260206004820152602360248201527f4e656564206174206c65617374203220737761707320666f722061726269747260448201526261676560e81b6064820152608490fd5b604051633ee5aeb560e01b8152600490fd5b60405162461bcd60e51b815260206004820152600c60248201526b155b985d5d1a1bdc9a5e995960a21b6044820152606490fd5b506001546001600160a01b03163314610136565b346100ec5760203660031901126100ec57610dce6111f1565b610dd66112ea565b6001600160a01b03908116908115610e2457600180546001600160a01b031981168417909155167f8be0079c531659141344cd1fd0a4f28419497f9722a3daafe3b4186f6b6457e0600080a3005b604051631e4fbdf760e01b815260006004820152602490fd5b346100ec5760003660031901126100ec576040517f00000000000000000000000000000000000000000000000000000000000000006001600160a01b03168152602090f35b346100ec5760203660031901126100ec576001600160a01b03610ea36111f1565b1660005260036020526020604060002054604051908152f35b346100ec5760003660031901126100ec5760206040516127108152f35b346100ec5760003660031901126100ec576040517f00000000000000000000000000000000000000000000000000000000000000006001600160a01b03168152602090f35b346100ec5760003660031901126100ec576001546040516001600160a01b039091168152602090f35b346100ec5760603660031901126100ec57610f606111f1565b6001600160a01b0360443581811692602435928483036100ec57610f826112ea565b8116928360005260036020528060406000205410610feb57610fe2817fe6fee221bb8a85476104e6b67ae7b66010866c78f60f8ce4946f80da6ce04df09460209487600052600386526040600020610fdb84825461121b565b9055611388565b604051908152a3005b60405162461bcd60e51b815260206004820152601b60248201527f496e73756666696369656e742070726f6669742062616c616e636500000000006044820152606490fd5b346100ec5760003660031901126100ec576110496112ea565b600180546001600160a01b031981169091556000906001600160a01b03167f8be0079c531659141344cd1fd0a4f28419497f9722a3daafe3b4186f6b6457e08280a3005b346100ec5760403660031901126100ec576110a66111f1565b602435906001600160a01b03821682036100ec5761001b916110c66112ea565b6110cf82611316565b91611388565b346100ec5760203660031901126100ec576001600160a01b036110f66111f1565b166000526002602052602060ff604060002054166040519015158152f35b346100ec5760403660031901126100ec5761112d6111f1565b602435908115158092036100ec576111436112ea565b60018060a01b0316600052600260205260406000209060ff80198354169116179055600080f35b346100ec5760003660031901126100ec576040517f00000000000000000000000000000000000000000000000000000000000000006001600160a01b03168152602090f35b346100ec5760003660031901126100ec577f00000000000000000000000000000000000000000000000000000000000000006001600160a01b03168152602090f35b600435906001600160a01b03821682036100ec57565b35906001600160a01b03821682036100ec57565b919082039182116104eb57565b903590601e19813603018212156100ec57018035906001600160401b0382116100ec57602001918160051b360383136100ec57565b90156104d55780359060de19813603018212156100ec570190565b91908110156104d55760051b8101359060de19813603018212156100ec570190565b356001600160a01b03811681036100ec5790565b90601f801991011681019081106001600160401b038211176105af57604052565b6001600160401b0381116105af57601f01601f191660200190565b6001546001600160a01b031633036112fe57565b60405163118cdaa760e01b8152336004820152602490fd5b6001600160a01b03168061132957504790565b6020602491604051928380926370a0823160e01b82523060048301525afa9081156105c557600091611359575090565b90506020813d602011611380575b81611374602093836112ae565b810103126100ec575190565b3d9150611367565b6001600160a01b03908116806113be57506000809381938293839183156113b4575b1690f1156105c557565b6108fc92506113aa565b60405163a9059cbb60e01b60208201526001600160a01b0393909316602484015260448084019490945292825250611400916113fb6064836112ae565b6114d7565b565b3d1561142d573d90611413826112cf565b9161142160405193846112ae565b82523d6000602084013e565b606090565b60005b8381106114455750506000910152565b8181015183820152602001611435565b81601f820112156100ec57805161146b816112cf565b9261147960405194856112ae565b818452602082840101116100ec576114979160208085019101611432565b90565b906020916114b381518092818552858086019101611432565b601f01601f1916010190565b908160209103126100ec575180151581036100ec5790565b6000806115009260018060a01b03169360208151910182865af16114f9611402565b9083611665565b805190811515918261152e575b50506115165750565b60249060405190635274afe760e01b82526004820152fd5b61154192506020809183010191016114bf565b15388061150d565b60405163095ea7b360e01b602082018181526001600160a01b0385166024840152604480840196909652948252949390926115856064856112ae565b83516000926001600160a01b039291858416918591829182855af1906115a9611402565b82611633575b5081611628575b50156115c6575b50505050509050565b6040519660208801521660248601528060448601526044855260808501908582106001600160401b03831117611614575061160993946113fb91604052826114d7565b8038808080806115bd565b634e487b7160e01b81526041600452602490fd5b90503b1515386115b6565b8051919250811591821561164b575b505090386115af565b61165e92506020809183010191016114bf565b3880611642565b9061168c575080511561167a57805190602001fd5b604051630a12f52160e11b8152600490fd5b815115806116bf575b61169d575090565b604051639996b31560e01b81526001600160a01b039091166004820152602490fd5b50803b1561169556fea264697066735822122009fd8c7021f321533cd4156106a740f6927fdd972f6eaf49d43ddabf4ac8cacb64736f6c63430008180033",
  "linkReferences": {},
  "deployedLinkReferences": {}
}