{
  "_format": "hh-sol-artifact-1",
  "contractName": "Searcher",
  "sourceName": "contracts/Searcher.sol",
  "abi": [
    {
      "inputs": [
        {
          "internalType": "address",
          "name": "_rustitrage",
          "type": "address"
        },
        {
          "internalType": "address",
          "name": "_uniswapV3Quoter",
          "type": "address"
        }
      ],
      "stateMutability": "nonpayable",
      "type": "constructor"
    },
    {
      "inputs": [
        {
          "internalType": "address",
          "name": "target",
          "type": "address"
        }
      ],
      "name": "AddressEmptyCode",
      "type": "error"
    },
    {
      "inputs": [
        {
          "internalType": "address",
          "name": "account",
          "type": "address"
        }
      ],
      "name": "AddressInsufficientBalance",
      "type": "error"
    },
    {
      "inputs": [],
      "name": "FailedInnerCall",
      "type": "error"
    },
    {
      "inputs": [
        {
          "internalType": "address",
          "name": "owner",
          "type": "address"
        }
      ],
      "name": "OwnableInvalidOwner",
      "type": "error"
    },
    {
      "inputs": [
        {
          "internalType": "address",
          "name": "account",
          "type": "address"
        }
      ],
      "name": "OwnableUnauthorizedAccount",
      "type": "error"
    },
    {
      "inputs": [],
      "name": "ReentrancyGuardReentrantCall",
      "type": "error"
    },
    {
      "inputs": [
        {
          "internalType": "address",
          "name": "token",
          "type": "address"
        }
      ],
      "name": "SafeERC20FailedOperation",
      "type": "error"
    },
    {
      "anonymous": false,
      "inputs": [
        {
          "indexed": true,
          "internalType": "address",
          "name": "target",
          "type": "address"
        },
        {
          "indexed": true,
          "internalType": "bytes32",
          "name": "txHash",
          "type": "bytes32"
        },
        {
          "indexed": false,
          "internalType": "uint256",
          "name": "profit",
          "type": "uint256"
        },
        {
          "indexed": false,
          "internalType": "uint256",
          "name": "gasUsed",
          "type": "uint256"
        }
      ],
      "name": "BackrunExecuted",
      "type": "event"
    },
    {
      "anonymous": false,
      "inputs": [
        {
          "indexed": true,
          "internalType": "bytes32",
          "name": "bundleHash",
          "type": "bytes32"
        },
        {
          "indexed": false,
          "internalType": "uint256",
          "name": "blockNumber",
          "type": "uint256"
        },
        {
          "indexed": false,
          "internalType": "uint256",
          "name": "profit",
          "type": "uint256"
        },
        {
          "indexed": true,
          "internalType": "address",
          "name": "miner",
          "type": "address"
        }
      ],
      "name": "BundleSubmitted",
      "type": "event"
    },
    {
      "anonymous": false,
      "inputs": [
        {
          "indexed": true,
          "internalType": "address",
          "name": "token0",
          "type": "address"
        },
        {
          "indexed": true,
          "internalType": "address",
          "name": "token1",
          "type": "address"
        },
        {
          "indexed": false,
          "internalType": "uint256",
          "name": "profit",
          "type": "uint256"
        },
        {
          "indexed": false,
          "internalType": "uint256",
          "name": "participants",
          "type": "uint256"
        }
      ],
      "name": "MixerBackrun",
      "type": "event"
    },
    {
      "anonymous": false,
      "inputs": [
        {
          "indexed": true,
          "internalType": "address",
          "name": "previousOwner",
          "type": "address"
        },
        {
          "indexed": true,
          "internalType": "address",
          "name": "newOwner",
          "type": "address"
        }
      ],
      "name": "OwnershipTransferred",
      "type": "event"
    },
    {
      "stateMutability": "payable",
      "type": "fallback"
    },
    {
      "inputs": [],
      "name": "BASIS_POINTS",
      "outputs": [
        {
          "internalType": "uint256",
          "name": "",
          "type": "uint256"
        }
      ],
      "stateMutability": "view",
      "type": "function"
    },
    {
      "inputs": [],
      "name": "ETH_USD_FEED",
      "outputs": [
        {
          "internalType": "contract AggregatorV3Interface",
          "name": "",
          "type": "address"
        }
      ],
      "stateMutability": "view",
      "type": "function"
    },
    {
      "inputs": [],
      "name": "USDC",
      "outputs": [
        {
          "internalType": "address",
          "name": "",
          "type": "address"
        }
      ],
      "stateMutability": "view",
      "type": "function"
    },
    {
      "inputs": [],
      "name": "USDT",
      "outputs": [
        {
          "internalType": "address",
          "name": "",
          "type": "address"
        }
      ],
      "stateMutability": "view",
      "type": "function"
    },
    {
      "inputs": [],
      "name": "WETH",
      "outputs": [
        {
          "internalType": "address",
          "name": "",
          "type": "address"
        }
      ],
      "stateMutability": "view",
      "type": "function"
    },
    {
      "inputs": [
        {
          "internalType": "address",
          "name": "tokenIn",
          "type": "address"
        },
        {
          "internalType": "address",
          "name": "tokenOut",
          "type": "address"
        },
        {
          "internalType": "uint256",
          "name": "amountIn",
          "type": "uint256"
        }
      ],
      "name": "_calculateCrossRate",
      "outputs": [
        {
          "internalType": "uint256",
          "name": "crossRate",
          "type": "uint256"
        }
      ],
      "stateMutability": "nonpayable",
      "type": "function"
    },
    {
      "inputs": [
        {
          "internalType": "bytes",
          "name": "orderData",
          "type": "bytes"
        },
        {
          "internalType": "uint256",
          "name": "amountIn",
          "type": "uint256"
        }
      ],
      "name": "_decode0xOrderPrice",
      "outputs": [
        {
          "internalType": "uint256",
          "name": "amountOut",
          "type": "uint256"
        }
      ],
      "stateMutability": "pure",
      "type": "function"
    },
    {
      "inputs": [
        {
          "internalType": "address",
          "name": "router",
          "type": "address"
        },
        {
          "internalType": "bytes",
          "name": "swapData",
          "type": "bytes"
        },
        {
          "internalType": "uint256",
          "name": "amountIn",
          "type": "uint256"
        }
      ],
      "name": "_simulateOneInchSwap",
      "outputs": [
        {
          "internalType": "uint256",
          "name": "estimatedOut",
          "type": "uint256"
        }
      ],
      "stateMutability": "view",
      "type": "function"
    },
    {
      "inputs": [
        {
          "internalType": "uint256",
          "name": "baseFee",
          "type": "uint256"
        },
        {
          "internalType": "uint256",
          "name": "priorityFee",
          "type": "uint256"
        }
      ],
      "name": "adjustGasStrategy",
      "outputs": [
        {
          "internalType": "uint256",
          "name": "maxFeePerGas",
          "type": "uint256"
        },
        {
          "internalType": "uint256",
          "name": "maxPriorityFeePerGas",
          "type": "uint256"
        }
      ],
      "stateMutability": "view",
      "type": "function"
    },
    {
      "inputs": [],
      "name": "backrunConfig",
      "outputs": [
        {
          "internalType": "uint256",
          "name": "minerShare",
          "type": "uint256"
        },
        {
          "internalType": "uint256",
          "name": "bloxrouteShare",
          "type": "uint256"
        },
        {
          "internalType": "uint256",
          "name": "searcherShare",
          "type": "uint256"
        },
        {
          "internalType": "uint256",
          "name": "userShare",
          "type": "uint256"
        },
        {
          "internalType": "address",
          "name": "additionalWallet",
          "type": "address"
        }
      ],
      "stateMutability": "view",
      "type": "function"
    },
    {
      "inputs": [
        {
          "internalType": "address",
          "name": "token",
          "type": "address"
        },
        {
          "internalType": "address",
          "name": "to",
          "type": "address"
        }
      ],
      "name": "emergencyWithdraw",
      "outputs": [],
      "stateMutability": "nonpayable",
      "type": "function"
    },
    {
      "inputs": [
        {
          "internalType": "string",
          "name": "",
          "type": "string"
        }
      ],
      "name": "enabledRelays",
      "outputs": [
        {
          "internalType": "bool",
          "name": "",
          "type": "bool"
        }
      ],
      "stateMutability": "view",
      "type": "function"
    },
    {
      "inputs": [
        {
          "internalType": "bytes",
          "name": "targetTx",
          "type": "bytes"
        },
        {
          "components": [
            {
              "components": [
                {
                  "internalType": "address",
                  "name": "tokenIn",
                  "type": "address"
                },
                {
                  "internalType": "address",
                  "name": "tokenOut",
                  "type": "address"
                },
                {
                  "internalType": "uint256",
                  "name": "amountIn",
                  "type": "uint256"
                },
                {
                  "internalType": "uint256",
                  "name": "minAmountOut",
                  "type": "uint256"
                },
                {
                  "internalType": "address",
                  "name": "pool",
                  "type": "address"
                },
                {
                  "internalType": "enum Rustitrage.PoolType",
                  "name": "poolType",
                  "type": "uint8"
                },
                {
                  "internalType": "bytes",
                  "name": "extraData",
                  "type": "bytes"
                }
              ],
              "internalType": "struct Rustitrage.SwapParams[]",
              "name": "swaps",
              "type": "tuple[]"
            },
            {
              "internalType": "address",
              "name": "miner",
              "type": "address"
            },
            {
              "internalType": "uint256",
              "name": "minerTip",
              "type": "uint256"
            },
            {
              "internalType": "uint256",
              "name": "deadline",
              "type": "uint256"
            }
          ],
          "internalType": "struct Rustitrage.ArbitrageParams",
          "name": "arbParams",
          "type": "tuple"
        }
      ],
      "name": "executeBackrun",
      "outputs": [],
      "stateMutability": "payable",
      "type": "function"
    },
    {
      "inputs": [
        {
          "internalType": "address",
          "name": "liquidationTarget",
          "type": "address"
        },
        {
          "internalType": "bytes",
          "name": "liquidationData",
          "type": "bytes"
        },
        {
          "components": [
            {
              "components": [
                {
                  "internalType": "address",
                  "name": "tokenIn",
                  "type": "address"
                },
                {
                  "internalType": "address",
                  "name": "tokenOut",
                  "type": "address"
                },
                {
                  "internalType": "uint256",
                  "name": "amountIn",
                  "type": "uint256"
                },
                {
                  "internalType": "uint256",
                  "name": "minAmountOut",
                  "type": "uint256"
                },
                {
                  "internalType": "address",
                  "name": "pool",
                  "type": "address"
                },
                {
                  "internalType": "enum Rustitrage.PoolType",
                  "name": "poolType",
                  "type": "uint8"
                },
                {
                  "internalType": "bytes",
                  "name": "extraData",
                  "type": "bytes"
                }
              ],
              "internalType": "struct Rustitrage.SwapParams[]",
              "name": "swaps",
              "type": "tuple[]"
            },
            {
              "internalType": "address",
              "name": "miner",
              "type": "address"
            },
            {
              "internalType": "uint256",
              "name": "minerTip",
              "type": "uint256"
            },
            {
              "internalType": "uint256",
              "name": "deadline",
              "type": "uint256"
            }
          ],
          "internalType": "struct Rustitrage.ArbitrageParams",
          "name": "arbParams",
          "type": "tuple"
        }
      ],
      "name": "executeLiquidationMEV",
      "outputs": [],
      "stateMutability": "payable",
      "type": "function"
    },
    {
      "inputs": [
        {
          "internalType": "bytes[]",
          "name": "transactions",
          "type": "bytes[]"
        },
        {
          "components": [
            {
              "components": [
                {
                  "internalType": "address",
                  "name": "tokenIn",
                  "type": "address"
                },
                {
                  "internalType": "address",
                  "name": "tokenOut",
                  "type": "address"
                },
                {
                  "internalType": "uint256",
                  "name": "amountIn",
                  "type": "uint256"
                },
                {
                  "internalType": "uint256",
                  "name": "minAmountOut",
                  "type": "uint256"
                },
                {
                  "internalType": "address",
                  "name": "pool",
                  "type": "address"
                },
                {
                  "internalType": "enum Rustitrage.PoolType",
                  "name": "poolType",
                  "type": "uint8"
                },
                {
                  "internalType": "bytes",
                  "name": "extraData",
                  "type": "bytes"
                }
              ],
              "internalType": "struct Rustitrage.SwapParams[]",
              "name": "swaps",
              "type": "tuple[]"
            },
            {
              "internalType": "address",
              "name": "miner",
              "type": "address"
            },
            {
              "internalType": "uint256",
              "name": "minerTip",
              "type": "uint256"
            },
            {
              "internalType": "uint256",
              "name": "deadline",
              "type": "uint256"
            }
          ],
          "internalType": "struct Rustitrage.ArbitrageParams",
          "name": "arbParams",
          "type": "tuple"
        }
      ],
      "name": "executeMixerBackrun",
      "outputs": [],
      "stateMutability": "payable",
      "type": "function"
    },
    {
      "inputs": [
        {
          "internalType": "bytes",
          "name": "victimTx",
          "type": "bytes"
        },
        {
          "components": [
            {
              "components": [
                {
                  "internalType": "address",
                  "name": "tokenIn",
                  "type": "address"
                },
                {
                  "internalType": "address",
                  "name": "tokenOut",
                  "type": "address"
                },
                {
                  "internalType": "uint256",
                  "name": "amountIn",
                  "type": "uint256"
                },
                {
                  "internalType": "uint256",
                  "name": "minAmountOut",
                  "type": "uint256"
                },
                {
                  "internalType": "address",
                  "name": "pool",
                  "type": "address"
                },
                {
                  "internalType": "enum Rustitrage.PoolType",
                  "name": "poolType",
                  "type": "uint8"
                },
                {
                  "internalType": "bytes",
                  "name": "extraData",
                  "type": "bytes"
                }
              ],
              "internalType": "struct Rustitrage.SwapParams[]",
              "name": "swaps",
              "type": "tuple[]"
            },
            {
              "internalType": "address",
              "name": "miner",
              "type": "address"
            },
            {
              "internalType": "uint256",
              "name": "minerTip",
              "type": "uint256"
            },
            {
              "internalType": "uint256",
              "name": "deadline",
              "type": "uint256"
            }
          ],
          "internalType": "struct Rustitrage.ArbitrageParams",
          "name": "frontrunParams",
          "type": "tuple"
        },
        {
          "components": [
            {
              "components": [
                {
                  "internalType": "address",
                  "name": "tokenIn",
                  "type": "address"
                },
                {
                  "internalType": "address",
                  "name": "tokenOut",
                  "type": "address"
                },
                {
                  "internalType": "uint256",
                  "name": "amountIn",
                  "type": "uint256"
                },
                {
                  "internalType": "uint256",
                  "name": "minAmountOut",
                  "type": "uint256"
                },
                {
                  "internalType": "address",
                  "name": "pool",
                  "type": "address"
                },
                {
                  "internalType": "enum Rustitrage.PoolType",
                  "name": "poolType",
                  "type": "uint8"
                },
                {
                  "internalType": "bytes",
                  "name": "extraData",
                  "type": "bytes"
                }
              ],
              "internalType": "struct Rustitrage.SwapParams[]",
              "name": "swaps",
              "type": "tuple[]"
            },
            {
              "internalType": "address",
              "name": "miner",
              "type": "address"
            },
            {
              "internalType": "uint256",
              "name": "minerTip",
              "type": "uint256"
            },
            {
              "internalType": "uint256",
              "name": "deadline",
              "type": "uint256"
            }
          ],
          "internalType": "struct Rustitrage.ArbitrageParams",
          "name": "backrunParams",
          "type": "tuple"
        }
      ],
      "name": "executeSandwichProtection",
      "outputs": [],
      "stateMutability": "payable",
      "type": "function"
    },
    {
      "inputs": [
        {
          "components": [
            {
              "components": [
                {
                  "internalType": "address",
                  "name": "tokenIn",
                  "type": "address"
                },
                {
                  "internalType": "address",
                  "name": "tokenOut",
                  "type": "address"
                },
                {
                  "internalType": "uint256",
                  "name": "amountIn",
                  "type": "uint256"
                },
                {
                  "internalType": "uint256",
                  "name": "minAmountOut",
                  "type": "uint256"
                },
                {
                  "internalType": "address",
                  "name": "pool",
                  "type": "address"
                },
                {
                  "internalType": "enum Rustitrage.PoolType",
                  "name": "poolType",
                  "type": "uint8"
                },
                {
                  "internalType": "bytes",
                  "name": "extraData",
                  "type": "bytes"
                }
              ],
              "internalType": "struct Rustitrage.SwapParams[]",
              "name": "swaps",
              "type": "tuple[]"
            },
            {
              "internalType": "address",
              "name": "miner",
              "type": "address"
            },
            {
              "internalType": "uint256",
              "name": "minerTip",
              "type": "uint256"
            },
            {
              "internalType": "uint256",
              "name": "deadline",
              "type": "uint256"
            }
          ],
          "internalType": "struct Rustitrage.ArbitrageParams",
          "name": "arbParams",
          "type": "tuple"
        }
      ],
      "name": "executeSimulation",
      "outputs": [
        {
          "internalType": "uint256",
          "name": "profit",
          "type": "uint256"
        },
        {
          "internalType": "uint256",
          "name": "gasUsed",
          "type": "uint256"
        }
      ],
      "stateMutability": "nonpayable",
      "type": "function"
    },
    {
      "inputs": [
        {
          "internalType": "bytes32",
          "name": "",
          "type": "bytes32"
        }
      ],
      "name": "executedBundles",
      "outputs": [
        {
          "internalType": "bool",
          "name": "",
          "type": "bool"
        }
      ],
      "stateMutability": "view",
      "type": "function"
    },
    {
      "inputs": [],
      "name": "getGasRecommendations",
      "outputs": [
        {
          "internalType": "uint256",
          "name": "slow",
          "type": "uint256"
        },
        {
          "internalType": "uint256",
          "name": "standard",
          "type": "uint256"
        },
        {
          "internalType": "uint256",
          "name": "fast",
          "type": "uint256"
        },
        {
          "internalType": "uint256",
          "name": "instant",
          "type": "uint256"
        }
      ],
      "stateMutability": "view",
      "type": "function"
    },
    {
      "inputs": [
        {
          "components": [
            {
              "components": [
                {
                  "internalType": "address",
                  "name": "tokenIn",
                  "type": "address"
                },
                {
                  "internalType": "address",
                  "name": "tokenOut",
                  "type": "address"
                },
                {
                  "internalType": "uint256",
                  "name": "amountIn",
                  "type": "uint256"
                },
                {
                  "internalType": "uint256",
                  "name": "minAmountOut",
                  "type": "uint256"
                },
                {
                  "internalType": "address",
                  "name": "pool",
                  "type": "address"
                },
                {
                  "internalType": "enum Rustitrage.PoolType",
                  "name": "poolType",
                  "type": "uint8"
                },
                {
                  "internalType": "bytes",
                  "name": "extraData",
                  "type": "bytes"
                }
              ],
              "internalType": "struct Rustitrage.SwapParams[]",
              "name": "swaps",
              "type": "tuple[]"
            },
            {
              "internalType": "address",
              "name": "miner",
              "type": "address"
            },
            {
              "internalType": "uint256",
              "name": "minerTip",
              "type": "uint256"
            },
            {
              "internalType": "uint256",
              "name": "deadline",
              "type": "uint256"
            }
          ],
          "internalType": "struct Rustitrage.ArbitrageParams",
          "name": "arbParams",
          "type": "tuple"
        },
        {
          "internalType": "uint256",
          "name": "gasPrice",
          "type": "uint256"
        },
        {
          "internalType": "uint256",
          "name": "gasLimit",
          "type": "uint256"
        }
      ],
      "name": "isProfitable",
      "outputs": [
        {
          "internalType": "bool",
          "name": "profitable",
          "type": "bool"
        },
        {
          "internalType": "uint256",
          "name": "estimatedProfit",
          "type": "uint256"
        }
      ],
      "stateMutability": "view",
      "type": "function"
    },
    {
      "inputs": [],
      "name": "minProfitThreshold",
      "outputs": [
        {
          "internalType": "uint256",
          "name": "",
          "type": "uint256"
        }
      ],
      "stateMutability": "view",
      "type": "function"
    },
    {
      "inputs": [],
      "name": "owner",
      "outputs": [
        {
          "internalType": "address",
          "name": "",
          "type": "address"
        }
      ],
      "stateMutability": "view",
      "type": "function"
    },
    {
      "inputs": [],
      "name": "paused",
      "outputs": [
        {
          "internalType": "bool",
          "name": "",
          "type": "bool"
        }
      ],
      "stateMutability": "view",
      "type": "function"
    },
    {
      "inputs": [
        {
          "internalType": "address",
          "name": "",
          "type": "address"
        }
      ],
      "name": "priceFeeds",
      "outputs": [
        {
          "internalType": "contract AggregatorV3Interface",
          "name": "",
          "type": "address"
        }
      ],
      "stateMutability": "view",
      "type": "function"
    },
    {
      "inputs": [],
      "name": "renounceOwnership",
      "outputs": [],
      "stateMutability": "nonpayable",
      "type": "function"
    },
    {
      "inputs": [],
      "name": "rustitrage",
      "outputs": [
        {
          "internalType": "contract Rustitrage",
          "name": "",
          "type": "address"
        }
      ],
      "stateMutability": "view",
      "type": "function"
    },
    {
      "inputs": [
        {
          "internalType": "address",
          "name": "",
          "type": "address"
        }
      ],
      "name": "searcherProfits",
      "outputs": [
        {
          "internalType": "uint256",
          "name": "",
          "type": "uint256"
        }
      ],
      "stateMutability": "view",
      "type": "function"
    },
    {
      "inputs": [
        {
          "internalType": "uint256",
          "name": "newThreshold",
          "type": "uint256"
        }
      ],
      "name": "setMinProfitThreshold",
      "outputs": [],
      "stateMutability": "nonpayable",
      "type": "function"
    },
    {
      "inputs": [
        {
          "internalType": "bool",
          "name": "_paused",
          "type": "bool"
        }
      ],
      "name": "setPaused",
      "outputs": [],
      "stateMutability": "nonpayable",
      "type": "function"
    },
    {
      "inputs": [
        {
          "internalType": "address",
          "name": "token",
          "type": "address"
        },
        {
          "internalType": "address",
          "name": "priceFeed",
          "type": "address"
        },
        {
          "internalType": "uint8",
          "name": "decimals",
          "type": "uint8"
        }
      ],
      "name": "setPriceFeed",
      "outputs": [],
      "stateMutability": "nonpayable",
      "type": "function"
    },
    {
      "inputs": [
        {
          "internalType": "string",
          "name": "relay",
          "type": "string"
        },
        {
          "internalType": "bool",
          "name": "enabled",
          "type": "bool"
        }
      ],
      "name": "setRelayStatus",
      "outputs": [],
      "stateMutability": "nonpayable",
      "type": "function"
    },
    {
      "inputs": [
        {
          "components": [
            {
              "components": [
                {
                  "internalType": "address",
                  "name": "tokenIn",
                  "type": "address"
                },
                {
                  "internalType": "address",
                  "name": "tokenOut",
                  "type": "address"
                },
                {
                  "internalType": "uint256",
                  "name": "amountIn",
                  "type": "uint256"
                },
                {
                  "internalType": "uint256",
                  "name": "minAmountOut",
                  "type": "uint256"
                },
                {
                  "internalType": "address",
                  "name": "pool",
                  "type": "address"
                },
                {
                  "internalType": "enum Rustitrage.PoolType",
                  "name": "poolType",
                  "type": "uint8"
                },
                {
                  "internalType": "bytes",
                  "name": "extraData",
                  "type": "bytes"
                }
              ],
              "internalType": "struct Rustitrage.SwapParams[]",
              "name": "swaps",
              "type": "tuple[]"
            },
            {
              "internalType": "address",
              "name": "miner",
              "type": "address"
            },
            {
              "internalType": "uint256",
              "name": "minerTip",
              "type": "uint256"
            },
            {
              "internalType": "uint256",
              "name": "deadline",
              "type": "uint256"
            }
          ],
          "internalType": "struct Rustitrage.ArbitrageParams",
          "name": "arbParams",
          "type": "tuple"
        }
      ],
      "name": "simulateArbitrage",
      "outputs": [
        {
          "internalType": "bool",
          "name": "success",
          "type": "bool"
        },
        {
          "internalType": "uint256",
          "name": "estimatedProfit",
          "type": "uint256"
        },
        {
          "internalType": "uint256",
          "name": "estimatedGas",
          "type": "uint256"
        }
      ],
      "stateMutability": "nonpayable",
      "type": "function"
    },
    {
      "inputs": [
        {
          "components": [
            {
              "internalType": "address[]",
              "name": "targets",
              "type": "address[]"
            },
            {
              "internalType": "bytes[]",
              "name": "calldatas",
              "type": "bytes[]"
            },
            {
              "internalType": "uint256[]",
              "name": "values",
              "type": "uint256[]"
            },
            {
              "internalType": "uint256",
              "name": "blockNumber",
              "type": "uint256"
            },
            {
              "internalType": "uint256",
              "name": "maxBaseFee",
              "type": "uint256"
            },
            {
              "internalType": "uint256",
              "name": "maxPriorityFee",
              "type": "uint256"
            }
          ],
          "internalType": "struct Searcher.Bundle",
          "name": "bundle",
          "type": "tuple"
        },
        {
          "internalType": "string[]",
          "name": "relays",
          "type": "string[]"
        }
      ],
      "name": "submitBundle",
      "outputs": [],
      "stateMutability": "nonpayable",
      "type": "function"
    },
    {
      "inputs": [
        {
          "internalType": "address",
          "name": "",
          "type": "address"
        }
      ],
      "name": "tokenDecimals",
      "outputs": [
        {
          "internalType": "uint8",
          "name": "",
          "type": "uint8"
        }
      ],
      "stateMutability": "view",
      "type": "function"
    },
    {
      "inputs": [
        {
          "internalType": "address",
          "name": "newOwner",
          "type": "address"
        }
      ],
      "name": "transferOwnership",
      "outputs": [],
      "stateMutability": "nonpayable",
      "type": "function"
    },
    {
      "inputs": [],
      "name": "uniswapV3Quoter",
      "outputs": [
        {
          "internalType": "contract IQuoter",
          "name": "",
          "type": "address"
        }
      ],
      "stateMutability": "view",
      "type": "function"
    },
    {
      "inputs": [
        {
          "components": [
            {
              "internalType": "uint256",
              "name": "minerShare",
              "type": "uint256"
            },
            {
              "internalType": "uint256",
              "name": "bloxrouteShare",
              "type": "uint256"
            },
            {
              "internalType": "uint256",
              "name": "searcherShare",
              "type": "uint256"
            },
            {
              "internalType": "uint256",
              "name": "userShare",
              "type": "uint256"
            },
            {
              "internalType": "address",
              "name": "additionalWallet",
              "type": "address"
            }
          ],
          "internalType": "struct Searcher.BackrunConfig",
          "name": "newConfig",
          "type": "tuple"
        }
      ],
      "name": "updateBackrunConfig",
      "outputs": [],
      "stateMutability": "nonpayable",
      "type": "function"
    },
    {
      "inputs": [
        {
          "internalType": "address",
          "name": "to",
          "type": "address"
        },
        {
          "internalType": "uint256",
          "name": "amount",
          "type": "uint256"
        }
      ],
      "name": "withdrawSearcherProfits",
      "outputs": [],
      "stateMutability": "nonpayable",
      "type": "function"
    },
    {
      "stateMutability": "payable",
      "type": "receive"
    }
  ],
  "bytecode": "0x60c034620002f757620046e1906001600160401b03601f38849003908101601f191683019082821184831017620002fc5780849160409687948552833981010312620002f7576200005e6020620000568462000312565b930162000312565b6001916000908382553315620002df578354336001600160a01b031980831682178755946001600160a01b039290919083167f8be0079c531659141344cd1fd0a4f28419497f9722a3daafe3b4186f6b6457e08680a366038d7ea4c68000600c558160ff199788600d5416600d551660a0521660805273c02aaa39b223fe8d0a0e5c4f27ead9083c756cc2808352600a602052868320735f4ec3df9cbd43714fe2740f5e3616155c5b84198582541617905573a0b86a33e6441b8c0b8c8c0b8c8c0b8c8c0b8c8c808452878420738fffffd4afb6115b954bd326cbe7b4ba576818f68682541617905573dac17f958d2ee523a2206206994597c13d831ec791828552888520733e7d1eab13ad0104d2750b8863b489d65364e32d878254161790558452600b6020528784206012888254161790558352868320600687825416179055825285822060068682541617905585519060a082019082821090821117620002cb5786526103e88082526101f4928360208401526080611f4093848a820152856060820152015260045581600555600655600755600854166008556029835168666c617368626f747360b81b81526009808201522081838254161790556029835168626c6f78726f75746560b81b815260098082015220818382541617905560268351651a1c31b63ab160d11b8152600960068201522091825416179055516143b99081620003288239608051818181610efb015281816137f70152613c6e015260a05181818161046d0152818161068e015281816107b10152818161098d01528181610ebd0152818161134e015281816114e30152818161166b01528181611bd10152611cfd0152f35b634e487b7160e01b83526041600452602483fd5b8551631e4fbdf760e01b815260048101839052602490fd5b600080fd5b634e487b7160e01b600052604160045260246000fd5b51906001600160a01b0382168203620002f75756fe60806040526004361015610015575b36612a2857005b60003560e01c806311b6de841461027557806316c38b3c1461027057806321d308c21461026b5780632820012e146102665780632afe8222146102615780632b501f451461025c57806332853edc14610257578063356a4baa146102525780633e42f0891461024d578063426d4686146102485780634d20d0f81461024357806359b212061461023e5780635c975abb146102395780635cae6116146102345780636382d9ad1461022f5780636fba0b311461022a578063715018a6146102255780637341ab8c1461022057806374fa06ef1461021b57806389a30271146102165780638da5cb5b146102115780638ee573ac1461020c57806394d8572a14610207578063961c65bb146102025780639dcb511a146101fd578063a7a61457146101f8578063ac0268d6146101f3578063ad5c4648146101ee578063b2b329a5146101e9578063c0286465146101e4578063c54e44eb146101df578063d15dfc68146101da578063d28f50e8146101d5578063e1f1c4a7146101d0578063ee8e28b4146101cb578063f2fde38b146101c6578063fd4690b6146101c15763feb19cee0361000e57611ad9565b611a58565b6119c1565b611916565b6118f9565b61182a565b6116e2565b6116b3565b611692565b61143b565b61140c565b61137d565b611338565b6112f9565b6112c8565b611299565b611259565b611230565b611201565b6111ce565b6111b0565b61114f565b6110f8565b611022565b610fdb565b610fb8565b610f2a565b610ee5565b610e15565b610da7565b610d6a565b610d03565b610c7a565b610ac9565b6106e5565b61036d565b610306565b6102ba565b908160809103126102885790565b600080fd5b602060031982011261028857600435906001600160401b038211610288576102b79160040161027a565b90565b346102885760606102d26102cd3661028d565b611f60565b90604051921515835260208301526040820152f35b8015150361028857565b9081602091031261028857356102b7816102e7565b3461028857602036600319011261028857600435610323816102e7565b61032b612b25565b60ff8019600d54169115151617600d55600080f35b9181601f84011215610288578235916001600160401b038311610288576020838186019501011161028857565b6060366003190112610288576001600160401b0360048035828111610288576103999036908301610340565b92602435818111610288576103b1903690850161027a565b90604435908111610288576103c9903690850161027a565b6001546001600160a01b03919082163314801561068a575b6103ea90612011565b6103f2612b51565b61040d610408610402858061204e565b90612099565b6120db565b9360409661042488519687926020840194856120f3565b0394610438601f1996878101835282610a1b565b51902091610469610464610460610459866000526002602052604060002090565b5460ff1690565b1590565b612111565b47907f000000000000000000000000000000000000000000000000000000000000000016803b15610288576104b594885163f8d64c0760e01b9182825281806000998a938d8301611e02565b038183875af19081610677575b5061054a578888886104d26122b2565b6308c379a003611f54576104e46122d0565b92836104f05750611f54565b8051700233937b73a393ab7103330b4b632b21d1607d1b6020820152936105469261053291869061052690603183015b90610c63565b03908101865285610a1b565b5162461bcd60e51b81529283928301612363565b0390fd5b813b15610673578851908152908590829081838161056a89828f01611e02565b03925af1908161065a575b506105d757505050506105866122b2565b6308c379a003611f54576105986122d0565b92836105a45750611f54565b80516f02130b1b5b93ab7103330b4b632b21d160851b602082015293610546926105329186906105269060308301610520565b916106226106329261063f94479080821160001461064c576105fe60209161061c936121a1565b925b61061661060e600c546121ae565b851015612266565b016120db565b90612b74565b6000526002602052604060002090565b805460ff19166001179055565b6106496001600055565b80f35b505061061c60208792610600565b8061066761066d926109e8565b80610cf8565b38610575565b8580fd5b80610667610684926109e8565b386104c2565b50337f00000000000000000000000000000000000000000000000000000000000000008316146103e1565b9181601f84011215610288578235916001600160401b038311610288576020808501948460051b01011161028857565b604080600319360112610288576001600160401b03600435818111610288576107129036906004016106b5565b90916024359081116102885761072c90369060040161027a565b9060018060a01b03806001541633148015610989575b61074b90612011565b610753612b51565b6107606002831015612374565b84519384610773846020830193846123cf565b0394610787601f1996878101835282610a1b565b519020916107ad6107a8610460610459866000526002602052604060002090565b61243a565b47827f000000000000000000000000000000000000000000000000000000000000000016803b156102885760008851809263f8d64c0760e01b825281806107f78b60048301611e02565b039134905af19081610976575b5061088d5786866108136122b2565b6308c379a003611f54576108256122d0565b91826108315750611f54565b61087761086b926105469483519485916105206020840160169075026b4bc32b9103130b1b5b93ab7103330b4b632b21d160551b81520190565b03908101845283610a1b565b5162461bcd60e51b815291829160048301612363565b61095f7fd3fab4fb85700c29ab7a9c004d105fa500f19920ce78a74598bbd0e53fb4c32393926109036106328a94479060009181811160001461096e576108d492506121a1565b975b6108ed6108e585600c54612253565b8a1015612486565b610622846108fd60208d016120db565b8b612cfe565b83610943602061061661091c6104086104028d8061204e565b9a61093661093d61092d838061204e565b9290938061204e565b9050612173565b916120b9565b9351948594169716958360209093929193604081019481520152565b0390a361096c6001600055565b005b5050976108d6565b80610667610983926109e8565b38610804565b50337f0000000000000000000000000000000000000000000000000000000000000000821614610742565b6001600160a01b0381160361028857565b35906109d0826109b4565b565b634e487b7160e01b600052604160045260246000fd5b6001600160401b0381116109fb57604052565b6109d2565b606081019081106001600160401b038211176109fb57604052565b90601f801991011681019081106001600160401b038211176109fb57604052565b604051906101c082018281106001600160401b038211176109fb57604052565b6001600160401b0381116109fb57601f01601f191660200190565b929192610a8382610a5c565b91610a916040519384610a1b565b829481845281830111610288578281602093846000960137010152565b9080601f83011215610288578160206102b793359101610a77565b3461028857600319606036820112610288576004803590610ae9826109b4565b6024356001600160401b03811161028857610b08903690600401610aae565b604435916000948251908101908111610b6757610b2490612df4565b92855b8451811015610b6c5782810190818111610b67576001916001600160f81b031990610b529087612e26565b5116881a610b608288612e26565b5301610b27565b61215d565b610c0f82878980610bd6610b898b60208082518301019101612e84565b5060405163085e2c5b60e01b81526001600160a01b0395861660048201529385166024850152604484018a90526001606485015260848401525090958693909284925090829060a4820190565b0392165afa90918282610c1a575b5050610c135750610bf7610bff916121c4565b6103e8900490565b6040519081529081906020820190565b0390f35b9050610bff565b610c379293503d8091833e610c2f8183610a1b565b810190612534565b50908480610be4565b60005b838110610c535750506000910152565b8181015183820152602001610c43565b90610c7660209282815194859201610c40565b0190565b34610288576020366003190112610288576004356001600160401b03811161028857366023820112156102885760ff610cd86020610cc5610c0f943690602481600401359101610a77565b8160405193828580945193849201610c40565b600990820190815203019020546040519116151581529081906020820190565b600091031261028857565b3461028857600036600319011261028857633b9aca004801804811610b67576377359400480190814811610b675764012a05f2004801804811610b67576402540be400480190814811610b6757608093604051938452602084015260408301526060820152f35b3461028857602036600319011261028857600435610d87816109b4565b60018060a01b031660005260036020526020604060002054604051908152f35b34610288576040366003190112610288576004356001600160401b03811161028857610dd7903690600401610340565b602060243592610de6846102e7565b610dee612b25565b826040519384928337810160098152030190209060ff801983541691151516179055600080f35b34610288576040366003190112610288576001546024359060043590610e5090336001600160a01b0391821614908115610eb9575b50612011565b600a8202828104600a1483151715610b6757606490048201809211610b675781808201809211610b675764746a528800808311610eb1575b5064174876e800809111610ea9575b50604080519182526020820192909252f35b915038610e97565b915038610e88565b90507f000000000000000000000000000000000000000000000000000000000000000016331438610e4a565b34610288576000366003190112610288576040517f00000000000000000000000000000000000000000000000000000000000000006001600160a01b03168152602090f35b34610288576060366003190112610288576004356001600160401b03811161028857610f5a90369060040161027a565b610f68604435602435612253565b90610f73818061204e565b159050610faf576040610f8b6104028360649461204e565b013504905b600c548101809111610b67576040805191831182526020820192909252f35b50600090610f90565b3461028857600036600319011261028857602060ff600d54166040519015158152f35b346102885760003660031901126102885760a060045460055460065460075490600180861b0360085416926040519485526020850152604084015260608301526080820152f35b346102885760403660031901126102885760043561103f816109b4565b60243561104b816109b4565b611053612b25565b6001600160a01b039182168061108f575060008080938193479183918315611085575b1690f11561108057005b611f54565b6108fc9250611076565b6040516370a0823160e01b8152306004820152925090602083602481855afa9182156110805761096c936000936110c7575b50612ed9565b6110ea91935060203d6020116110f1575b6110e28183610a1b565b8101906125b5565b91386110c1565b503d6110d8565b34610288576040366003190112610288576004356001600160401b03811161028857611128903690600401610340565b50506103e7602435818102918115918304141715610b67576020906103e860405191048152f35b34610288576000806003193601126111ad57611169612b25565b600180546001600160a01b0319811690915581906001600160a01b03167f8be0079c531659141344cd1fd0a4f28419497f9722a3daafe3b4186f6b6457e08280a380f35b80fd5b34610288576000366003190112610288576020600c54604051908152f35b34610288576111dc3661028d565b6111e65a91612f84565b5a8203918211610b6757604080519182526020820192909252f35b3461028857600036600319011261028857602060405173a0b86a33e6441b8c0b8c8c0b8c8c0b8c8c0b8c8c8152f35b34610288576000366003190112610288576001546040516001600160a01b039091168152602090f35b3461028857602036600319011261028857600435611276816109b4565b60018060a01b0316600052600b602052602060ff60406000205416604051908152f35b34610288576000366003190112610288576020604051735f4ec3df9cbd43714fe2740f5e3616155c5b84198152f35b34610288576020366003190112610288576004356000526002602052602060ff604060002054166040519015158152f35b34610288576020366003190112610288576020600435611318816109b4565b60018060a01b03809116600052600a825260406000205416604051908152f35b34610288576000366003190112610288576040517f00000000000000000000000000000000000000000000000000000000000000006001600160a01b03168152602090f35b346102885760a036600319011261028857611396612b25565b6004356024358101809111610b67576044358101809111610b67576064358101809111610b6757612710036113cd5761096c6125c4565b60405162461bcd60e51b8152602060048201526017602482015276536861726573206d7573742073756d20746f203130302560481b6044820152606490fd5b3461028857600036600319011261028857602060405173c02aaa39b223fe8d0a0e5c4f27ead9083c756cc28152f35b6040366003190112610288576001600160401b0360043581811161028857611467903690600401610340565b9091602435908111610288576114846114b391369060040161027a565b9260018060a01b0392836001541633148015611667575b6114a490612011565b6114ac612b51565b3691610a77565b60208151910120916114dd6114d8610460610459866000526002602052604060002090565b61260a565b5a9047927f00000000000000000000000000000000000000000000000000000000000000001692833b156102885760405163f8d64c0760e01b8152600081806115298660048301611e02565b038134895af19081611654575b506115b9576115436122b2565b6308c379a003611f54576115556122d0565b806115605750611f54565b6040516f02130b1b5b93ab7103330b4b632b21d160851b6020820152610546916115a19082906115939060308301610520565b03601f198101835282610a1b565b60405162461bcd60e51b815291829160048301612363565b7f81657e287381a9f151412b1ca35b71b124852ec8811ade9dbf17298e19853cb692611616611610602061163494479060009181811160001461164c5761160092506121a1565b955b610616600c54881015612650565b84612b74565b61162d610632876000526002602052604060002090565b5a906121a1565b6040805192835260208301919091528190810161095f565b505095611602565b80610667611661926109e8565b38611536565b50337f000000000000000000000000000000000000000000000000000000000000000085161461149b565b34610288576020366003190112610288576116ab612b25565b600435600c55005b3461028857600036600319011261028857602060405173dac17f958d2ee523a2206206994597c13d831ec78152f35b346102885760031960403682011261028857600435906001600160401b038083116102885760c083600401928436030112610288576024359081116102885761172f9036906004016106b5565b60018054919390929161175690336001600160a01b0391821614908115610eb95750612011565b6117a860648601359561176a438811612695565b61178f611777848061204e565b9050611786602484018661204e565b919050146126e1565b611786604461179e858061204e565b939050018461204e565b6040516117bd816115936020820194856127aa565b5190209260005b818110611803576040805187815260006020820152419187917fbd2580f5d202d76e038f32fedbcf700ffcc2ae2b2b881ed25ca7134d8210d6d89190a3005b8061182461181f610459611819889587896128a0565b9061259c565b6128bb565b016117c4565b3461028857604036600319011261028857600435611847816109b4565b602435611852612b25565b6000913083526003602052816040842054106118b4573060009081526003602052604090208392839283928392919061188c8382546121a1565b9055829082156118aa575b6001600160a01b031690f1156110805780f35b6108fc9150611897565b60405162461bcd60e51b815260206004820152601b60248201527f496e73756666696369656e742070726f6669742062616c616e636500000000006044820152606490fd5b346102885760003660031901126102885760206040516127108152f35b3461028857606036600319011261028857600435611933816109b4565b61195161194b60243592611946846109b4565b613049565b91613049565b90801515806119b8575b1561197857610c0f91611973610bff92604435612253565b612561565b60405162461bcd60e51b81526020600482015260186024820152775072696365206f7261636c6520756e617661696c61626c6560401b6044820152606490fd5b5081151561195b565b34610288576020366003190112610288576004356119de816109b4565b6119e6612b25565b6001600160a01b03908116908115611a3457600180546001600160a01b031981168417909155167f8be0079c531659141344cd1fd0a4f28419497f9722a3daafe3b4186f6b6457e0600080a3005b604051631e4fbdf760e01b815260006004820152602490fd5b60ff81160361028857565b3461028857606036600319011261028857600435611a75816109b4565b602435611a81816109b4565b60443591611a8e83611a4d565b611a96612b25565b60018060a01b03809116600052600a6020526040600020911660018060a01b0319825416179055600b60205260ff6040600020911660ff19825416179055600080f35b606036600319011261028857600435611af1816109b4565b6001600160401b0360243581811161028857611b11903690600401610340565b909260443592831161028857611b2e611bbd93369060040161027a565b9060018060a01b03806001541633148015611cf9575b611b4d90612011565b611b55612b51565b611bcf604051966020880188611b6d888488856128fb565b0398611b81601f199a8b8101835282610a1b565b51902095611ba7611ba26104606104598a6000526002602052604060002090565b61291f565b479460405180938160009b8c96879687946120e5565b03925af1611bc961296b565b5061299b565b7f000000000000000000000000000000000000000000000000000000000000000016803b15611cf55784604051809263f8d64c0760e01b8252818381611c188960048301611e02565b03925af19081611ce2575b50611c9d5784611c316122b2565b6308c379a003611f5457611c436122d0565b9081611c4f5750611f54565b6115a1611c91916105469360405193849161052060208401601e907f4c69717569646174696f6e20617262697472616765206661696c65643a20000081520190565b03908101835282610a1b565b916106226106329261063f944790808211600014611cd457611cc460209161061c936121a1565b925b610616600c548510156129dc565b505061061c60208792611cc6565b80610667611cef926109e8565b38611c23565b8480fd5b50337f0000000000000000000000000000000000000000000000000000000000000000821614611b44565b9190826040910312610288576020825192015190565b9035601e19823603018112156102885701602081359101916001600160401b038211610288578160051b3603831361028857565b6006111561028857565b35906109d082611d6e565b60061115611d8d57565b634e487b7160e01b600052602160045260246000fd5b906006821015611d8d5752565b9035601e19823603018112156102885701602081359101916001600160401b03821161028857813603831361028857565b908060209392818452848401376000828201840152601f01601f1916010190565b60209182825260a09260a0830193611e1a8380611d3a565b806080976080868901525260c09160c087019260c08360051b8901019882956000936000945b868610611e845750505050505050505081611e73611e63606093608095016109c5565b6001600160a01b03166040860152565b604081013582850152013591015290565b90919293949596979b60bf198c82030189528c3560de1984360301811215611f50578a611f3f60019386839401611f3060e0918035611ec2816109b4565b888060a01b03809116855286820135611eda816109b4565b16868501526040808201359085015260608082013590850152611f10611f018d83016109c5565b6001600160a01b0316858e0152565b611f27611f1e8c8301611d78565b8c860190611da3565b8c810190611db0565b919092818d8201520191611de1565b9e0199019796019493929190611e40565b8280fd5b6040513d6000823e3d90fd5b6040516374fa06ef60e01b815280611f7b8360048301611e02565b03916040826000948186305af1908184938593611fda575b50611fa15750505080918190565b604081959395949294013585119081611fca575b5015611fc357506001929190565b9250829190565b611fd49150612a62565b38611fb5565b90925061200091935060403d60401161200a575b611ff88183610a1b565b810190611d24565b9290929138611f93565b503d611fee565b1561201857565b60405162461bcd60e51b815260206004820152600e60248201526d139bdd08185d5d1a1bdc9a5e995960921b6044820152606490fd5b903590601e198136030182121561028857018035906001600160401b03821161028857602001918160051b3603831361028857565b634e487b7160e01b600052603260045260246000fd5b90156120b45780359060de1981360301821215610288570190565b612083565b91908110156120b45760051b8101359060de1981360301821215610288570190565b356102b7816109b4565b908092918237016000815290565b826014949392823701906001600160601b03199060601b1681520190565b1561211857565b60405162461bcd60e51b815260206004820152601b60248201527f50726f74656374696f6e20616c726561647920657865637574656400000000006044820152606490fd5b634e487b7160e01b600052601160045260246000fd5b600019810191908211610b6757565b600119810191908211610b6757565b90612710918203918211610b6757565b91908203918211610b6757565b908160011b9180830460021490151715610b6757565b906103e391828102928184041490151715610b6757565b90603282029180830460321490151715610b6757565b906103de91828102928184041490151715610b6757565b90670de0b6b3a764000091828102928184041490151715610b6757565b906103e691828102928184041490151715610b6757565b906103e591828102928184041490151715610b6757565b81810292918115918404141715610b6757565b1561226d57565b60405162461bcd60e51b815260206004820152601c60248201527f496e73756666696369656e742073616e64776963682070726f666974000000006044820152606490fd5b60009060033d116122bf57565b905060046000803e60005160e01c90565b600060443d106102b757604051600319913d83016004833e81516001600160401b03918282113d60248401111761232d57818401948551938411612335573d8501016020848701011161232d57506102b792910160200190610a1b565b949350505050565b50949350505050565b9060209161235781518092818552858086019101610c40565b601f01601f1916010190565b9060206102b792818152019061233e565b1561237b57565b60405162461bcd60e51b815260206004820152602660248201527f4e656564206174206c656173742032207472616e73616374696f6e7320666f726044820152651036b4bc32b960d11b6064820152608490fd5b91602081602085016020865252604084019360408360051b82010194846000925b858410612401575050505050505090565b909192939495968580612429600193603f198682030188526124238c88611db0565b90611de1565b9901940194019295949391906123f0565b1561244157565b60405162461bcd60e51b815260206004820152601d60248201527f4d697865722062756e646c6520616c72656164792065786563757465640000006044820152606490fd5b1561248d57565b60405162461bcd60e51b8152602060048201526019602482015278125b9cdd59999a58da595b9d081b5a5e195c881c1c9bd99a5d603a1b6044820152606490fd5b81601f82011215610288578051916020916001600160401b0384116109fb578360051b906040519461250285840187610a1b565b85528380860192820101928311610288578301905b828210612525575050505090565b81518152908301908301612517565b9190916040818403126102885780519260208201516001600160401b038111610288576102b792016124ce565b811561256b570490565b634e487b7160e01b600052601260045260246000fd5b6004019081600411610b6757565b91908201809211610b6757565b6020908260405193849283378101600981520301902090565b90816020910312610288575190565b6004356004556024356005556044356006556064356007556084356125e8816109b4565b600880546001600160a01b0319166001600160a01b0392909216919091179055565b1561261157565b60405162461bcd60e51b8152602060048201526017602482015276109d5b991b1948185b1c9958591e48195e1958dd5d1959604a1b6044820152606490fd5b1561265757565b60405162461bcd60e51b8152602060048201526016602482015275141c9bd99a5d0818995b1bddc81d1a1c995cda1bdb1960521b6044820152606490fd5b1561269c57565b60405162461bcd60e51b815260206004820152601b60248201527f42756e646c6520626c6f636b206e756d62657220746f6f206c6f7700000000006044820152606490fd5b156126e857565b60405162461bcd60e51b81526020600482015260186024820152774d69736d6174636865642062756e646c652061727261797360401b6044820152606490fd5b908281815260208091019360208360051b82010194846000925b858410612753575050505050505090565b909192939495968580612775600193601f198682030188526124238c88611db0565b990194019401929594939190612742565b81835290916001600160fb1b0383116102885760209260051b809284830137010190565b602080825260e08201906127be8480611d3a565b80919360c06020870152526101008401929160005b828110612843575050505060a061282760c09261280a6127f66020880188611d3a565b601f19888503810160408a01529391612728565b906128186040880188611d3a565b91878403016060880152612786565b9360608101356080850152608081013582850152013591015290565b9091929382806001928735612857816109b4565b848060a01b031681520195019101929190926127d3565b903590601e198136030182121561028857018035906001600160401b0382116102885760200191813603831361028857565b908210156120b4576128b79160051b81019061286e565b9091565b156128c257565b60405162461bcd60e51b815260206004820152601160248201527014995b185e481b9bdd08195b98589b1959607a1b6044820152606490fd5b909280926014946001600160601b03199060601b1683528483013701016000815290565b1561292657565b60405162461bcd60e51b815260206004820152601c60248201527f4c69717569646174696f6e20616c7265616479206578656375746564000000006044820152606490fd5b3d15612996573d9061297c82610a5c565b9161298a6040519384610a1b565b82523d6000602084013e565b606090565b156129a257565b60405162461bcd60e51b8152602060048201526012602482015271131a5c5d5a59185d1a5bdb8819985a5b195960721b6044820152606490fd5b156129e357565b60405162461bcd60e51b815260206004820152601f60248201527f496e73756666696369656e74206c69717569646174696f6e2070726f666974006044820152606490fd5b60405162461bcd60e51b8152602060048201526012602482015271119d5b98dd1a5bdb881b9bdd08199bdd5b9960721b6044820152606490fd5b6002612a6e828061204e565b905010612b1f574260608201351115612b1f57612a91610408610402838061204e565b612abf612ab36020610616612aa6868061204e565b61093d610936898061204e565b6001600160a01b031690565b6001600160a01b0390911603612b1f576000805b612add838061204e565b9050811015612b1757612b05610460612b0083612afa878061204e565b906120b9565b6131a6565b612b1157600101612ad3565b50905090565b505050600190565b50600090565b6001546001600160a01b03163303612b3957565b60405163118cdaa760e01b8152336004820152602490fd5b600260005414612b62576002600055565b604051633ee5aeb560e01b8152600490fd5b90612b8c612b8460045484612253565b612710900490565b918291612bc5612ba1612b8460055485612253565b92612bc084612bc0612bb8612b8460075486612253565b9788946121a1565b6121a1565b938015801580612cec575b612cba575b5050508015801580612ca6575b612c6a575b50508015801580612c56575b612c1a575b5050306000908152600360205260409020612c16905b91825461258f565b9055565b60008080938193612c38612ab3612ab360085460018060a01b031690565b908390612c4d575bf115611080573880612bf8565b506108fc612c40565b506008546001600160a01b03161515612bf3565b60008080938193612c88612ab3612ab360085460018060a01b031690565b908390612c9d575bf115611080573880612be7565b506108fc612c90565b506008546001600160a01b03161515612be2565b6000928392839283928391612ce2575b6001600160a01b031690f11561108057388080612bd5565b6108fc9150612cca565b506001600160a01b0383161515612bd0565b90612b849260028111600014612de957612d22612d1d612d2a92612182565b6121db565b60065461258f565b91612328808411612ddf575b50612d6190612bc0612d59612d50612b8460045485612253565b96879684612253565b9586926121a1565b918015801580612dcd575b612d9b575b5050508015801580612c5657612c1a575050306000908152600360205260409020612c1690612c0e565b6000928392839283928391612dc3575b6001600160a01b031690f11561108057388080612d71565b6108fc9150612dab565b506001600160a01b0383161515612d6c565b9250612d61612d36565b50612d2a6000612d22565b90612dfe82610a5c565b612e0b6040519182610a1b565b8281528092612e1c601f1991610a5c565b0190602036910137565b9081518110156120b4570160200190565b51906109d0826109b4565b81601f82011215610288578051612e5881610a5c565b92612e666040519485610a1b565b81845260208284010111610288576102b79160208085019101610c40565b9160c083830312610288578251612e9a816109b4565b926020810151612ea9816109b4565b9260408201519260608301519260808101519260a08201516001600160401b038111610288576102b79201612e42565b60405163a9059cbb60e01b602082019081526001600160a01b03939093166024820152604480820194909452928352612f3b91600091829190612f1d606487610a1b565b60018060a01b031694519082865af1612f3461296b565b9083613faf565b8051908115159182612f69575b5050612f515750565b60249060405190635274afe760e01b82526004820152fd5b612f7c9250602080918301019101613275565b153880612f48565b6002612f90828061204e565b905010612b1f576040612fa6610402838061204e565b0135906000915b612fb7828061204e565b905083101561300157612fd790612fd284612afa858061204e565b61328a565b916060612fe882612afa858061204e565b01358310612ff95760010191612fad565b505050600090565b91506040613012610402838061204e565b0135906130246040820135809361258f565b831115612ff9576102b792604061304161040284612bc09561204e565b0135906121a1565b6001600160a01b038181168015801561317f575b6131745773a0b86a33e6441b8c0b8c8c0b8c8c0b8c8c0b8c8c8114908115613156575b8115613138575b811561311a575b81156130fc575b506130ee576001600160a01b038281166000908152600a6020526040902054169081166130c657506102b790613790565b6130e86104596102b79360018060a01b0316600052600b602052604060002090565b9061364b565b5050670de0b6b3a764000090565b73853d955acef822db058eb8505911ed77f175b99e91501438613095565b734fabb145d64652a948d72533023f6e7a623c7c538114915061308e565b736b175474e89094c44da98b954eedeac495271d0f81149150613087565b73dac17f958d2ee523a2206206994597c13d831ec781149150613080565b5050506102b76134e3565b5073c02aaa39b223fe8d0a0e5c4f27ead9083c756cc2811461305d565b356102b781611d6e565b6001600160a01b0390816131b9826120db565b161515918261325c575b82613235575b5081613227575b81613219575b81613200575b816131e5575090565b6131f2915060a00161319c565b6131fb81611d83565b151590565b9050613211612ab3608083016120db565b1515906131dc565b6060810135151591506131d6565b6040810135151591506131d0565b909150613241826120db565b90613251612ab3602085016120db565b9116141590386131c9565b915061326d612ab3602083016120db565b1515916131c3565b9081602091031261028857516102b7816102e7565b6102b791610bf79160a0810160016132a18261319c565b6132aa81611d83565b036132bf5750906132ba91613d51565b6121c4565b60026132ca8261319c565b6132d381611d83565b036132e35750906132ba91613bda565b60036132ee8261319c565b6132f781611d83565b036133075750906132ba91613ac1565b60046133128261319c565b61331b81611d83565b0361332b5750906132ba91613a18565b61333660059161319c565b61333f81611d83565b0361334e57906132ba91613992565b50610bf76132ba916121f1565b519069ffffffffffffffffffff8216820361028857565b908160a0910312610288576133868161335b565b916020820151916040810151916102b760806060840151930161335b565b156133ab57565b60405162461bcd60e51b8152602060048201526017602482015276125b9d985b1a59081c1c9a58d948199c9bdb4819995959604a1b6044820152606490fd5b156133f157565b60405162461bcd60e51b8152602060048201526016602482015275141c9a58d94819995959081b9bdd081d5c19185d195960521b6044820152606490fd5b1561343657565b60405162461bcd60e51b815260206004820152601060248201526f50726963652066656564207374616c6560801b6044820152606490fd5b9081602091031261028857516102b781611a4d565b60ff6011199116019060ff8211610b6757565b60ff166012039060ff8211610b6757565b60ff16604d8111610b6757600a0a90565b60609060208152601060208201526f283934b1b2903332b2b21032b93937b960811b60408201520190565b604051633fabe5a360e21b815290735f4ec3df9cbd43714fe2740f5e3616155c5b841960a083600481845afa80600094600092613612575b506135395760405162461bcd60e51b815280610546600482016134b8565b60049161356c610e1061356560209461355460008a136133a4565b61355f8115156133ea565b426121a1565b111561342f565b60405163313ce56760e01b815292839182905afa908115611080576000916135e3575b5060ff811692908160128510156135be57506102b79293506135b36135b891613496565b6134a7565b90612253565b91936012106135cb575050565b6102b79293506135b36135dd91613483565b90612561565b613605915060203d60201161360b575b6135fd8183610a1b565b81019061346e565b3861358f565b503d6135f3565b909450613637915060a03d60a011613644575b61362f8183610a1b565b810190613372565b509592505093903861351b565b503d613625565b604051633fabe5a360e21b8152919291906001600160a01b031660a082600481845afa80600093600092613767575b506136985760405162461bcd60e51b815280610546600482016134b8565b6004916136b3610e10613565602094613554600089136133a4565b60405163313ce56760e01b815292839182905afa90811561108057600091613748575b508160ff82166012811015613718575050906135b86135b36136f793613496565b915b601260ff8216106137075750565b916135dd6135b36102b79394613496565b6012909593959291921161372e575b50506136f9565b6137409294506135b36135dd91613483565b913880613727565b613761915060203d60201161360b576135fd8183610a1b565b386136d6565b909350613783915060a03d60a0116136445761362f8183610a1b565b509492505092903861367a565b6137986134e3565b60405163f7729d4360e01b80825273c02aaa39b223fe8d0a0e5c4f27ead9083c756cc260048301526001600160a01b038481166024840152610bb86044840152670de0b6b3a764000060648401526000608484018190529394936020937f0000000000000000000000000000000000000000000000000000000000000000909216929190848260a48184885af1909181613973575b5061394a575060405181815273c02aaa39b223fe8d0a0e5c4f27ead9083c756cc260048201526001600160a01b03851660248201526101f46044820152670de0b6b3a764000060648201526000608482015283818060a4810103816000875af160009181613954575b5061394a575060405190815273c02aaa39b223fe8d0a0e5c4f27ead9083c756cc260048201526001600160a01b039390931660248401526127106044840152670de0b6b3a764000060648401526000608484018190528291849160a4918391905af191829160009361392b575b5050613926575060005b801561391f576119736102b792612208565b5050600090565b61390d565b613942929350803d106110f1576110e28183610a1b565b903880613903565b935050505061390d565b61396c919250853d87116110f1576110e28183610a1b565b9038613896565b61398b919250853d87116110f1576110e28183610a1b565b903861382d565b60206139a56139c89260c081019061286e565b6040519384928392636fba0b3160e01b8452604060048501526044840191611de1565b8560248301520381305afa600091816139f7575b506139f257506139ee6103e8916121c4565b0490565b905090565b613a1191925060203d6020116110f1576110e28183610a1b565b90386139dc565b90613a2660c083018361286e565b8101606082820312610288576001600160401b039082358281116102885781613a50918501610aae565b92602081013592831161028857613a6d60409260ff948301610aae565b500135613a7981611a4d565b1660018103613a975750613a9260806102b794016120db565b613ebe565b600203613ab257613aad60806102b794016120db565b613e3d565b506102b79150610bf7906121c4565b906080613adc613ad460c085018561286e565b8101906102f1565b920191613aee612ab3612ab3856120db565b60408051633cd0243b60e11b81523060048201526024810185905294909290918390869060449082905afa60009581613bba575b50613b38575050506102b79150610bf790612225565b15613b435750505090565b613b5691929350612ab3612ab3916120db565b81516366410a2160e01b81523060048201526024810184905291908190839060449082905afa918291600093613b9a575b50506139f25750610bf76102b791612225565b613bb1929350803d1061200a57611ff88183610a1b565b50903880613b87565b613bd2919650843d861161200a57611ff88183610a1b565b509438613b22565b6020613be960c083018361286e565b908092918101031261028857359162ffffff831683036102885781613c68613c1d6020613c1681966120db565b93016120db565b60405163f7729d4360e01b81526001600160a01b0393841660048201529216602483015262ffffff9094166044820152606481019190915260006084820152918290819060a4820190565b038160007f00000000000000000000000000000000000000000000000000000000000000006001600160a01b03165af160009181613cac575b506102b75750600090565b613cc691925060203d6020116110f1576110e28183610a1b565b9038613ca1565b906020828203126102885781516001600160401b038111610288576102b792016124ce565b906040820190825260206060819360408382015285518094520193019160005b828110613d20575050505090565b83516001600160a01b031685529381019392810192600101613d12565b80518210156120b45760209160051b010190565b608081013590613d60826109b4565b6001600160a01b0391813591602090613d78846109b4565b013590613d84826109b4565b60405192613d9184610a00565b60028452602084019060403683378451156120b457851690528251600110156120b45760009284613ddf9316604082015260405194858094819363d06ca61f60e01b83528960048401613cf2565b0392165afa60009181613e18575b50613dff5750610bf76102b79161223c565b613e149150613e0e8151612173565b90613d3d565b5190565b613e369192503d806000833e613e2e8183610a1b565b810190613ccd565b9038613ded565b60405163157f411160e11b81526001600160a01b039091166004820152606060248201529060209082908190613e7790606483019061233e565b8560448301520381305afa60009181613e9d575b506139f257506139ee6103e891612225565b613eb791925060203d6020116110f1576110e28183610a1b565b9038613e8b565b92919260206040518092630545a77b60e21b82528180613ee18760048301612363565b03916001600160a01b03165afa60009181613f7e575b50613f0b57505090610bf76102b7916121f1565b15613f7057613f4b613f3d613f2160e093614196565b946135b8613f326080880151612208565b606088015190612561565b670de0b6b3a7640000900490565b9201518051613f575750565b6102b791926135b8613f6b612b849361425f565b612191565b5090610bf76102b7916121f1565b613fa191925060203d602011613fa8575b613f998183610a1b565b810190613275565b9038613ef7565b503d613f8f565b90613fd65750805115613fc457805190602001fd5b604051630a12f52160e11b8152600490fd5b81511580614009575b613fe7575090565b604051639996b31560e01b81526001600160a01b039091166004820152602490fd5b50803b15613fdf565b604051906101c082018281106001600160401b038211176109fb57604052816101a060009182815282602082015282604082015260609280848301528060808301528060a083015260c08201528260e082015282610100820152826101208201528261014082015282610160820152826101808201520152565b6101c081830312610288578051926140a660208301612e37565b926140b360408401612e37565b926060810151926080820151926140cc60a08401612e37565b926140d960c08201612e37565b9260e0820151916001600160401b039283811161028857846140fc918301612e42565b936101008201518481116102885781614116918401612e42565b936101208301518181116102885782614130918501612e42565b93610140840151828111610288578361414a918601612e42565b936101608101518381116102885784614164918301612e42565b93610180820151848111610288578161417e918401612e42565b936101a0830151908111610288576102b79201612e42565b61419e614012565b508051810160200190602001906141b49161408c565b9b9c6141cd9b919b9a929a999399989498979597610a3c565b9081526001600160a01b03909d1660208e01526001600160a01b031660408d015260608c015260808b01526001600160a01b031660a08a01526001600160a01b031660c089015260e08801526101008701526101208601526101408501526101608401526101808301526101a082015290565b91908260409103126102885760208251614259816109b4565b92015190565b6000908051600481101561427257505090565b6020828101516001600160e01b031916638f4ffcb160e01b14614296575b50505090565b60031982019493509091828511610b67576142bc6142b386612581565b82511015614341565b6142c585612df4565b9260005b86811061432d5750858391601f6142f497981692836142fe575b935050505082518301019101614240565b9050388080614290565b601c9360f8920380950101519160031b166000196001821b0190610100031b16918401015238808080846142e3565b8281016024015185820185015283016142c9565b1561434857565b60405162461bcd60e51b8152602060048201526013602482015272536c696365206f7574206f6620626f756e647360681b6044820152606490fdfea2646970667358221220ca399227e2221aef4c37328cee8e307ce9cf606e8c3dcbb3784f5d1ef67b315f64736f6c63430008180033",
  "linkReferences": {},
  "deployedLinkReferences": {}
}